:020000040800F2
:1000000000500020D94300082D4000082F40000870
:10001000314000083340000835400008000000006F
:100020000000000000000000000000003740000851
:1000300039400008000000003B4000083D40000837
:1000400021440008214400082144000821440008FC
:1000500021440008214400082144000821440008EC
:1000600021440008214400082144000821440008DC
:1000700021440008214400082144000821440008CC
:10008000214400082144000845400008214400089C
:1000900021440008214400082144000821440008AC
:1000A000214400085540000821440008214400086C
:1000B000214400082144000821440008214400088C
:1000C000214400082144000821440008214400087C
:1000D000214400086540000821440008214400082C
:1000E00021440008214400082144000800000000C9
:1000F0000000000000000000000000000000000000
:0C01000000000000000000005FF808F1A3
:10010C0010B5054C237833B9044B13B10448AFF345
:10011C0000800123237010BD90000020000000001F
:10012C009C4C000808B5034B1BB103490348AFF3C3
:10013C00008008BD00000000940000209C4C0008CA
:10014C00034613F8012B002AFBD1181A013870470B
:10015C0010B504460E4B18784FF47A73B3FBF0F3DA
:10016C000C4A1068B0FBF3F000F034FB68B90F2CAC
:10017C0001D901200AE0002221464FF0FF3000F0A7
:10018C00E7FA034B5C60002000E0012010BD00BFCB
:10019C00000000202400002008B5074A136843F033
:1001AC0010031360032000F0C1FA0020FFF7D0FF0A
:1001BC0003F014FF002008BD00200240034A116820
:1001CC00034B1B780B441360704700BF8002002068
:1001DC0000000020014B1868704700BF800200200F
:1001EC0038B50446FFF7F6FF0546B4F1FF3F02D0E1
:1001FC00044B1B781C44FFF7EDFF401BA042FAD3C5
:10020C0038BD00BF000000200368D86C70477047F1
:10021C0010B5044603685A6812F0200F18D01A68FB
:10022C0012F0020F14D0826A12F0100F03D1826AFE
:10023C0042F4007282629A6802F46022B2F5602F76
:10024C0038D0204603F016FC23686FF012021A60B7
:10025C0023685A6812F0800F22D01A6812F0040F2B
:10026C001ED0A26A12F0100F03D1A26A42F40052FF
:10027C00A2629A6802F4E042B2F5E04F31D05A68BB
:10028C0012F4806F05D19A6802F46022B2F5602FE7
:10029C0024D0204600F048FA23686FF00C021A6054
:1002AC0023685A6812F0400F03D01B6813F0010F3B
:1002BC0028D110BD227B002AC3D15A6822F020021B
:1002CC005A60A36A23F48073A362A36A13F4805F59
:1002DC00B7D1A36A43F00103A362B2E7227B002AE1
:1002EC00D7D15A6822F080025A60A36A23F4805353
:1002FC00A362A36A13F4807FCBD1A36A43F00103FA
:10030C00A362C6E7A36A43F48033A3622046FFF7D7
:10031C007EFF23686FF001021A60CAE730B482B026
:10032C000023019390F82430012B00F08B800246BF
:10033C00012380F824304B68062B29D80568686B9C
:10034C0003EB8303053B1F249C4020EA04000C684C
:10035C0004FA03F303436B630B68092B38D9156854
:10036C00E86803EB43031E3B07249C4020EA04008F
:10037C008C6804FA03F30343EB600B68103B012B0E
:10038C0034D90020002382F8243002B030BC7047EE
:10039C000C2B0ED80568286B03EB8303233B1F241F
:1003AC009C4020EA04000C6804FA03F303432B631B
:1003BC00D2E70568E86A03EB8303413B1F249C40AA
:1003CC0020EA04000C6804FA03F30343EB62C3E76E
:1003DC001568286903EB430307249C4020EA0400BA
:1003EC008C6804FA03F303432B61C6E713681648C1
:1003FC00834205D0936A43F0200393620120C1E746
:10040C00986810F4000F1BD1986840F400009860B5
:10041C000B68102B01D00020B4E70C4B1B680C4967
:10042C00A1FB03139B0C03EB83035900019102E026
:10043C00019B013B0193019B002BF9D10020A1E70B
:10044C0000209FE70220A0E70024014024000020A8
:10045C0083DE1B4330B583B00023019303689A6895
:10046C0012F0010F2ED19A6842F001029A60174BDC
:10047C001B68174AA2FB03239B0C019302E0019B10
:10048C00013B0193019B002BF9D10446FFF7A2FE1F
:10049C00054623689B6813F0010F11D1FFF79AFEF4
:1004AC00401B0228F5D9A36A43F01003A362E36A48
:1004BC0043F00103E362002384F82430012002E0BE
:1004CC00002000E0002003B030BD00BF240000205D
:1004DC0083DE1B4390F82430012B6FD010B50446FB
:1004EC00012380F82430FFF7B5FF0246002860D1C5
:1004FC00A36A23F4706323F0010343F48073A362B3
:10050C00236830498B422CD0A16A21F48011A1625E
:10051C00596811F4806F05D0A16A21F4405141F45F
:10052C008051A162A16A11F4805F30D0E16A21F0A0
:10053C000601E162002184F824106FF002011960B9
:10054C0021684B6843F020034B602368996801F4E1
:10055C006021B1F5602F1DD0996841F4801199602C
:10056C002AE0A1F58061496811F4702FCCD0A16A02
:10057C0041F48011A1621449496811F4806FD1D003
:10058C00A16A21F4405141F48051A162CAE70021D3
:10059C00E162CFE70B498B4204D0996841F4A0018A
:1005AC00996009E0A1F58061496811F4702FD3D1ED
:1005BC00F3E7002384F82430104610BD02221046C5
:1005CC00704700BF002801400024014038B5036883
:1005DC009A6812F0010F01D1002038BD04469A68C8
:1005EC0022F001029A60FFF7F5FD054623689B682F
:1005FC0013F0010F0ED0FFF7EDFD401B0228F5D9CB
:10060C00A36A43F01003A362E36A43F00103E362BD
:10061C000120E2E70020E0E700287FD038B504464F
:10062C00836A002B33D02046FFF7D0FFA36A13F068
:10063C0010036DD100286BD1A26A22F4885222F0EB
:10064C00020242F00202A2626268E1690A43257B5F
:10065C0042EA4502A168B1F5807F21D001291CD066
:10066C00217D01291FD02568696821F469410B435C
:10067C006B6021688D682A4B2B4013438B60A368F9
:10068C00B3F5807F20D0012B1ED000211FE0C36268
:10069C0080F8243003F0EEFAC5E74FF48073DFE7FF
:1006AC004FF48073DCE735B9A169013943EA413372
:1006BC0043F40063D7E7A16A41F02001A162E16A2B
:1006CC0041F00101E162CEE72369013B1905256880
:1006DC00EB6A23F470030B43EB6223689968114BAC
:1006EC000B409A420BD0A36A23F0120343F0100381
:1006FC00A362E36A43F00103E36201200DE00023EF
:10070C00E362A36A23F0030343F00103A36204E052
:10071C00A36A43F01003A362012038BD0120704787
:10072C00FDF7E1FFFE0E1FFF70470000074AD3687C
:10073C0023F4E0631B041B0C000200F4E06018437C
:10074C0040F0BF6040F40030D060704700ED00E036
:10075C0030B4174BDB68C3F30223C3F10704042C3A
:10076C0028BF04241D1D062D18D9033B4FF0FF355F
:10077C0005FA04F421EA0401994005FA03F322EA8C
:10078C000303194300280BDB0901C9B200F16040D7
:10079C0000F5614080F8001330BC70470023E5E79A
:1007AC0000F00F000901C9B2024B1954F4E700BF65
:1007BC0000ED00E014ED00E0002807DB00F01F0264
:1007CC00400901239340024A42F82030704700BF91
:1007DC0000E100E00138B0F1807F0AD2064B58608E
:1007EC00064AF02182F823100020986007221A6034
:1007FC0070470120704700BF10E000E000ED00E002
:10080C0008B590F82130022B03D004238363012018
:10081C0008BD0268136823F00E03136002681368A6
:10082C0023F0010313600368194A934214D0143265
:10083C0093421FD0143293421ED0143293421ED0D6
:10084C00143293421ED01432934202D04FF0807275
:10085C0003E04FF4801200E001220E4B5A6001239A
:10086C0080F82130002380F82030436B6BB198471F
:10087C000020CDE71022F0E74FF48072EDE74FF443
:10088C008052EAE74FF48032E7E70020C0E700BF70
:10089C000800024000000240F0B482B0002632464C
:1008AC00A2E0002D5AD0012D00D1CE68FF2B69D8C3
:1008BC008446FF2B69D89500DCF800400F27AF4029
:1008CC0024EA070406FA05F52C43CCF800404C68E2
:1008DC0014F0805F00F087805F4CA56945F001053E
:1008EC00A561A46904F001040194019C9508AF1C56
:1008FC005A4C54F8274002F00307BF004FF00F0C7E
:10090C000CFA07FC24EA0C0C554CA04243D004F51D
:10091C008064A04200F0818004F58064A0427ED007
:10092C0004F58064A04234D0042435E04D4FBD4220
:10093C0014D00BD94C4FBD4210D007F58037BD42B7
:10094C000CD0A7F58017BD42B0D107E0A7F58017F2
:10095C00BD4203D007F58037BD42A7D18D687DB16C
:10096C00012D08D044610826A0E7CE6808369DE723
:10097C00CE680C369AE70461082697E7002695E7BF
:10098C00042693E700F1040C93E7A2F10805AD00EF
:10099C0092E7032400E00024BC4044EA0C04023536
:1009AC002E4F47F825404C6814F4803F39D02F4D1A
:1009BC002C681C432C604C6814F4003F37D02B4D32
:1009CC006C681C436C604C6814F4801F35D0274D48
:1009DC00AC681C43AC604C6814F4001F33D0234D3E
:1009EC00EC682343EB6001320B6833FA02F430D02D
:1009FC000124944023409C42F5D14D68122DB7D070
:100A0C0094D8022DB1D07FF64CAF032DB6D0112D5A
:100A1C007FF44CAFCE68043648E70124BCE70224CF
:100A2C00BAE7124D2C6824EA03042C60C3E70F4D7F
:100A3C006C6824EA03046C60C5E70C4DAC6824EACE
:100A4C000304AC60C7E7094DEC6824EA0303EB60D0
:100A5C00C9E702B0F0BC7047001002400000014032
:100A6C00000801400000211000003110000401407A
:100A7C008368194201D1002070470120704712B9D8
:100A8C0009040161704701617047C3680B4201D1D1
:100A9C00016170474161704703685A6912F4806FB5
:100AAC0011D06FF480625A6100230363202280F816
:100ABC003D2080F83E30026C42F00402026480F863
:100ACC003C300120704700207047F8B506460C46B4
:100ADC0017461D4622E0FFF77DFB069BC01AA84275
:100AEC0000D8DDB900233363202286F83D2086F838
:100AFC003E30326C42F02002326486F83C300120E9
:100B0C001AE033685B6924EA03039BB2B3FA83F3FC
:100B1C005B099F420FD1B5F1FF3FDCD1C4F3074312
:100B2C00012BEED033689B6924EA03039BB2B3FA22
:100B3C0083F35B09EDE70020F8BDF8B504460D46DC
:100B4C0016461F463CE01A6842F400721A6023688D
:100B5C006FF480625A6100232363202284F83D20C5
:100B6C0084F83E30226C42F00402226484F83C305B
:100B7C00012033E0FFF72EFBC01BB04200D8FEB9BA
:100B8C0000232363202284F83D2084F83E30226C1D
:100B9C0042F02002226484F83C3001201EE02368DD
:100BAC005B6925EA03039BB2003318BF0123A3B191
:100BBC0023685A6912F4806FC5D1B6F1FF3FD9D1C1
:100BCC00C5F30743012BEAD023689B6925EA03038D
:100BDC009BB2003318BF0123E9E70020F8BD70B5C4
:100BEC0004460D46164623685B6913F0800F1CD132
:100BFC002046FFF751FFD0B9B5F1FF3FF3D0FFF717
:100C0C00E9FA801BA84201D8002DECD10023236304
:100C1C00202284F83D2084F83E30226C42F02002E1
:100C2C00226484F83C30012000E0002070BD0120DB
:100C3C00FCE700002DE9F04184B0044688461646D6
:100C4C001F460B9D0268136843F480731360009574
:100C5C000A9B00224FF00111FFF737FF20B101234F
:100C6C00184604B0BDE8F081226808F0FE03136159
:100C7C002B460A9A20492046FFF75FFF08B1012353
:100C8C00EEE70023039323685A6903929B6903934D
:100C9C00039B2A460A992046FFF7A1FF034658B149
:100CAC00236C042B01D00123DAE72268136843F488
:100CBC00007313600123D3E7012F0ED02368320A8F
:100CCC001A612A460A992046FFF789FF034678B134
:100CDC00236C042B05D00123C2E72268F6B21661FF
:100CEC00BEE72268136843F4007313600123B7E76F
:100CFC002268F6B21661B3E7020001002DE9F0415B
:100D0C0084B004460E46174698460B9D026813683D
:100D1C0043F4806313600268136843F480731360B8
:100D2C0000950A9B00224FF00111FFF7CEFE20B177
:100D3C000123184604B0BDE8F081F6B2236806F032
:100D4C00FE021A612B460A9A38492046FFF7F5FE37
:100D5C0008B10123EDE70023039323685A6903923A
:100D6C009B690393039B2A460A992046FFF737FF9A
:100D7C0058B1236C042B01D00123DAE722681368E5
:100D8C0043F4007313600123D3E7B8F1010F0DD1C5
:100D9C002368FFB21F612A460A992046FFF71FFFFE
:100DAC0020B3236C042B1AD00123C2E723683A0A20
:100DBC001A612A460A992046FFF711FF58B1236C95
:100DCC00042B01D00123B4E72268136843F40073A9
:100DDC0013600123ADE72368FFB21F61DBE72268D4
:100DEC00136843F4007313600123A2E722681368AD
:100DFC0043F48073136000950A9B00224FF001119D
:100E0C002046FFF762FE08B1012392E7236846F003
:100E1C0001061E612B460A9A04492046FFF78DFEF7
:100E2C000346002885D0012383E700BF02000100A0
:100E3C0070B504460D46164623685B6913F0040F23
:100E4C001CD12046FFF728FED0B9B5F1FF3FF3D0F7
:100E5C00FFF7C0F9801BA84201D8002DECD100236C
:100E6C002363202284F83D2084F83E30226C42F02B
:100E7C002002226484F83C30012000E0002070BD88
:100E8C000120FCE770B505460C4616462B685A69DE
:100E9C0012F0400F29D15A6912F0100F15D1FFF73B
:100EAC0099F9801BA04201D8002CEFD100232B63B1
:100EBC00202285F83D2085F83E302A6C42F0200235
:100ECC002A6485F83C30012070BD6FF010025A6125
:100EDC0000232B63202285F83D2085F83E302A6CB8
:100EEC002A6485F83C300120EEE70020ECE7000096
:100EFC00002800F0BE80F8B5044690F83D30002B79
:100F0C006BD0242384F83D302268136823F001034E
:100F1C00136000F0F7FD6268584B9A4262D8584B48
:100F2C0098428CBF00230123002B40F0A480554B2A
:100F3C00A3FB00239B0C21684A6822F03F021A4352
:100F4C004A6025682A6A22F03F0266684B498E4245
:100F5C004ED8013313432B622568E96921F44F41C4
:100F6C0021F0FF016368454A93424BD801385B007E
:100F7C00B0FBF3F30133C3F30B03042B38BF04238F
:100F8C000B43EB6121680B6823F0C003E269206A14
:100F9C00024313430B6021688B6823F4034323F053
:100FAC00FF032269E068024313438B602168CB681E
:100FBC0023F0FF036269A06902431343CB602268EC
:100FCC00136843F00103136000202064202384F88D
:100FDC003D30206384F83E00F8BD80F83C3002F0D0
:100FEC0015FF8EE7284B98428CBF002301239BE70B
:100FFC004FF4967101FB03F32449A1FB03139B09E6
:10100C000133A7E7A268BAB9461E03EB4307B6FB48
:10101C00F7F60136C6F30B06B6FA86F6760936BB3A
:10102C00C2B9013803EB4303B0FBF3F30133C3F351
:10103C000B0242F40043A3E7461E03EB830707EBC6
:10104C008707B6FBF7F60136C6F30B06B6FA86F63B
:10105C007609E4E7013803EB830303EB8303B0FB6E
:10106C00F3F20132C2F30B0242F4404388E701234E
:10107C0086E7012070470120AEE700BFA086010083
:10108C007F841E0083DE1B43FF083D00D34D62109E
:10109C002DE9F04182B004460E4617469846FFF7FC
:1010AC0099F894F83D30DBB2202B04D0022318467B
:1010BC0002B0BDE8F08105460090192301224C498D
:1010CC002046FFF702FD002840F08B8094F83C305E
:1010DC00012B00F08880012384F83C3023681A68C7
:1010EC0012F0010F03D11A6842F001021A60226853
:1010FC00136823F400631360212384F83D304023EC
:10110C0084F83E3000232364089B6362BDF82430CE
:10111C006385638D2385374BE36201950A9B0093AE
:10112C0043463A4631462046FFF784FD00285CD101
:10113C00238D002B34D02A460A992046FFF74FFD09
:10114C0010BB626A236812781A61616A4B1C636275
:10115C00238D013B9BB22385628D013A92B262854D
:10116C002268506910F0040FE2D0002BE0D04B78CD
:10117C001361636A01336362238D013B2385638DA5
:10118C00013B9BB26385D3E7236C042B01D0012375
:10119C008DE72268136843F400731360012386E71C
:1011AC002A460A992046FFF743FE034658B1236CA2
:1011BC00042B01D001237AE72268136843F40073EF
:1011CC001360012373E721680A6842F400720A6015
:1011DC00202284F83D20002284F83E2084F83C2014
:1011EC0065E7022363E7022361E701235FE700BFA2
:1011FC00020010000000FFFF2DE9F04186B004460C
:10120C000E4617469846FEF7E5FF94F83D30DBB2E4
:10121C00202B04D00226304606B0BDE8F0810546EE
:10122C000090192301228C492046FFF74EFC002820
:10123C0040F0488194F83C30012B00F045810123AB
:10124C0084F83C3023681A6812F0010F03D11A6835
:10125C0042F001021A602268136823F400631360E1
:10126C00222384F83D30402384F83E30002323644D
:10127C000C9B6362BDF834306385638D2385774B9B
:10128C00E36201950E9B009343463A463146204655
:10129C00FFF734FD0646002840F01881238D5BB91A
:1012AC00029323685A6902929A690292029A1A6806
:1012BC0042F400721A607DE0012B0FD0022B21D07A
:1012CC002268136843F4806313600023059323683A
:1012DC005A6905929B690593059B6BE0226813681C
:1012EC0023F48063136072B60023039323685A6956
:1012FC0003929A690392039A1A6842F400721A6074
:10130C0062B657E02268136843F40063136072B648
:10131C000023049323685A6904929A690492049AEC
:10132C001A6822F480621A6062B643E02A460E996B
:10133C002046FFF7A7FD002840F0CA8023681A69F1
:10134C00636A1A70636A01336362238D013B2385E0
:10135C00638D013B9BB263852CE000950E9B0022B4
:10136C003F492046FFF7B1FB002840F0B38072B62E
:10137C002268136843F40073136023681A69636A64
:10138C001A70636A01336362238D013B2385638D7D
:10139C00013B9BB2638562B623681A69636A1A7053
:1013AC00636A01336362238D013B2385638D013BAB
:1013BC009BB26385238D002B7BD0032B52D8012B42
:1013CC00B4D0022BC9D000950E9B00222449204694
:1013DC00FFF77BFB00287FD12268136823F480631E
:1013EC00136072B623681A69636A1A70636A0133F0
:1013FC006362238D013B2385638D013B9BB2638527
:10140C0000950E9B002216492046FFF75EFB002834
:10141C0064D12268136843F40073136023681A695B
:10142C00636A1A70636A01336362238D013B2385FF
:10143C00638D013B9BB2638562B623681A69636A4C
:10144C001A70636A01336362238D013B2385638DBC
:10145C00013B9BB26385ADE7020010000000FFFF6B
:10146C00040001002A460E992046FFF70BFD0028C8
:10147C0036D123681A69636A1A70626A531C6362F4
:10148C00238D013B2385638D013B9BB263852368D0
:10149C00596911F0040F8DD01B695370636A0133C5
:1014AC006362238D013B2385638D013B9BB2638576
:1014BC0080E7202384F83D30002384F83E3084F804
:1014CC003C30A8E60226A6E60226A4E60126A2E601
:1014DC000126A0E601269EE601269CE601269AE658
:1014EC00012698E682B0084B1B68084AA2FB03232E
:1014FC005B0A00FB03F0019000BF019B5A1E019296
:10150C00002BF9D102B0704724000020D34D62109B
:10151C00002800F0F58170B582B00446036813F022
:10152C00010F2CD0AB4B5B6803F00C03042B1DD0CC
:10153C00A84B5B6803F00C03082B12D06368B3F55F
:10154C00803F41D0002B55D103F1804303F5043388
:10155C001A6822F480321A601A6822F480221A6007
:10156C0037E09C4B5B6813F4803FE7D0994B1B68CA
:10157C0013F4003F03D06368002B00F0C381236891
:10158C0013F0020F76D0934B5B6813F00C0F5FD007
:10159C00904B5B6803F00C03082B54D02369002B91
:1015AC0000F08A808C4B01221A60FEF713FE054670
:1015BC00884B1B6813F0020F75D1FEF70BFE401B16
:1015CC000228F5D90320A0E1824A136843F4803342
:1015DC001360636843B3FEF7FDFD05467D4B1B6846
:1015EC0013F4003FCBD1FEF7F5FD401B6428F5D971
:1015FC0003208AE1B3F5A02F09D0764B1A6822F4A8
:10160C0080321A601A6822F480221A60E1E703F132
:10161C008043A3F53C331A6842F480221A601A689E
:10162C0042F480321A60D4E7FEF7D4FD0546694BCC
:10163C001B6813F4003FA2D0FEF7CCFD401B6428BE
:10164C00F5D9032061E1634B5B6813F4803FA5D1AE
:10165C00604B1B6813F0020F04D02369012B01D0DF
:10166C00012052E15B4A136823F0F803616943EAF5
:10167C00C1031360236813F0080F32D0A369002B49
:10168C005BD0564B01221A60FEF7A4FD0546514B68
:10169C005B6A13F0020F21D1FEF79CFD401B022860
:1016AC00F5D9032031E14B4A136823F0F803616943
:1016BC0043EAC1031360DDE7474B00221A60FEF7D3
:1016CC0089FD0546434B1B6813F0020FD2D0FEF781
:1016DC0081FD401B0228F5D9032016E10120FFF7FC
:1016EC0001FF236813F0040F00F09880394BDB697D
:1016FC0013F0805F33D1374BDA6942F08052DA61F4
:10170C00DB6903F080530193019B0125344B1B686B
:10171C0013F4807F25D0E368012B36D0002B4CD1FD
:10172C0003F1804303F504331A6A22F001021A62B2
:10173C001A6A22F004021A622CE0284B00221A606A
:10174C00FEF748FD0546234B5B6A13F0020FC8D029
:10175C00FEF740FD401B0228F5D90320D5E00025FB
:10176C00D4E71F4A136843F480731360FEF732FD0D
:10177C0006461B4B1B6813F4807FCCD1FEF72AFD69
:10178C00801B6428F5D90320BFE0124A136A43F08A
:10179C0001031362E3687BB3FEF71CFD06460D4B99
:1017AC001B6A13F0020F38D1FEF714FD801B41F2B7
:1017BC0088339842F3D90320A7E0052B12D0054BB0
:1017CC001A6A22F001021A621A6A22F004021A62E0
:1017DC00E0E700BF00100240000042428004424299
:1017EC00007000404C4B1A6A42F004021A621A6AEA
:1017FC0042F001021A62CDE7FEF7ECFC0646464BBE
:10180C001B6A13F0020F08D0FEF7E4FC801B41F2B8
:10181C0088339842F3D9032077E0E5B9E369002BCC
:10182C0072D03D4A526802F00C02082A56D0022BA4
:10183C0017D03A4B00221A60FEF7CCFC0446364B0C
:10184C001B6813F0007F47D0FEF7C4FC001B022876
:10185C00F5D9032059E0304AD36923F08053D36182
:10186C00DCE72E4B00221A60FEF7B4FC05462A4B2F
:10187C001B6813F0007F06D0FEF7ACFC401B02285F
:10188C00F5D9032041E0236AB3F5803F1AD02249F1
:10189C004B6823F47413226A606A024313434B604F
:1018AC001E4B01221A60FEF795FC04461A4B1B686E
:1018BC0013F0007F0ED1FEF78DFC001B0228F5D92A
:1018CC00032022E0144A536823F40033A1680B432D
:1018DC005360DCE7002018E0002016E0012B16D046
:1018EC000D4B5B6803F48031226A914201D00120D8
:1018FC000BE003F47013626A93420AD0012004E0F7
:10190C0001207047012000E0002002B070BD0120D2
:10191C00FBE70020F9E700BF0010024060004242E4
:10192C0010B487B0164C94E80F000DF1180C0CE9AC
:10193C000F00238AADF80430124B5B6803F00C02E5
:10194C00082A1AD1C3F38342624412F8102C13F400
:10195C00803F05D10C4800FB02F007B010BC70476B
:10196C00084B5B68C3F34043634413F8143C0748CB
:10197C0000FB02F0B0FBF3F0EFE70448EDE700BF2B
:10198C00B44C00080010024000093D0000127A001F
:10199C00002800F0A38070B50446524B1B6803F07E
:1019AC0007038B420CD24F4A136823F007030B43F7
:1019BC001360136803F007038B4201D0012070BD44
:1019CC00236813F0020F17D013F0040F04D0464A0B
:1019DC00536843F4E0635360236813F0080F04D09A
:1019EC00414A536843F4605353603F4A536823F0B1
:1019FC00F003A068034353600D46236813F0010FF6
:101A0C0031D06368012B20D0022B25D0364A1268C6
:101A1C0012F0020F64D034494A6822F003021343D7
:101A2C004B60FEF7D7FB06462F4B5B6803F00C03AD
:101A3C006268B3EB820F16D0FEF7CCFB801B41F231
:101A4C0088339842F0D90320B9E7274A126812F478
:101A5C00003FE0D10120B2E7234A126812F0007F68
:101A6C00D9D10120ABE71F4B1B6803F00703AB4236
:101A7C000CD91C4A136823F007032B43136013681B
:101A8C0003F00703AB4201D0012098E7236813F061
:101A9C00040F06D0144A536823F4E063E1680B4347
:101AAC005360236813F0080F07D00F4A536823F4D0
:101ABC006053216943EAC1035360FFF731FF0A4BBE
:101ACC005B68C3F30313094AD35CD840084B186016
:101ADC00084B1868FEF73CFB002070E701207047AC
:101AEC0001206CE7002002400010024054F5000871
:101AFC002400002004000020014B1868704700BF30
:101B0C002400002008B5FFF7F7FF044B5B68C3F314
:101B1C000223034AD35CD84008BD00BF001002402A
:101B2C0064F5000808B5FFF7E7FF044B5B68C3F3E7
:101B3C00C223034AD35CD84008BD00BF001002404A
:101B4C0064F5000870B582B00446036813F0010F09
:101B5C0034D03E4BDB6913F0805F48D13B4BDA69E4
:101B6C0042F08052DA61DB6903F080530193019BF0
:101B7C000125374B1B6813F4807F3AD0334B1B6A1B
:101B8C0013F4407311D0626802F440729A420CD084
:101B9C002E4A136A23F440702E4901260E6000264B
:101BAC000E60106213F0010F37D1284A136A23F428
:101BBC00407361680B431362002D3FD1236813F00F
:101BCC00020F06D0214A536823F44043A1680B430B
:101BDC005360236813F0100F35D01C4A536823F45C
:101BEC008003E1680B435360002002B070BD0025F8
:101BFC00BFE7174A136843F480731360FEF7EAFAE1
:101C0C000646134B1B6813F4807FB7D1FEF7E2FA3C
:101C1C00801B6428F5D90320E7E7FEF7DBFA0646BC
:101C2C000A4B1B6A13F0020FBFD1FEF7D3FA801BCD
:101C3C0041F288339842F3D90320D6E7D36923F0D5
:101C4C008053D361BAE70020CFE700BF00100240F9
:101C5C000070004040044242F8B505460F46164657
:101C6C001C462B689B6837EA03030CBF0123002337
:101C7C00B34237D0B4F1FF3FF3D0FEF7ABFA069B7B
:101C8C00C01AA04201D2002CEBD12A68536823F071
:101C9C00E00353606B68B3F5827F0BD0AB6AB3F58E
:101CAC00005F14D0012385F85130002385F85030A3
:101CBC00032018E0AB68B3F5004F02D0B3F5806F8A
:101CCC00ECD12A68136823F040031360E6E72A6816
:101CDC00136823F4005313602A68136843F4005309
:101CEC001360DFE70020F8BD10B582B00446009207
:101CFC000B4600228021FFF7AFFF034610B91846B0
:101D0C0002B010BD636D43F0200363650323F6E757
:101D1C00002839D010B504460023836290F8513066
:101D2C00002B2CD0022384F851302268136823F046
:101D3C00400313606368A2681343E268134322698B
:101D4C00134362691343A26902F400721343E269FC
:101D5C001343226A1343A16A22680B431360638BFB
:101D6C00226803F0040353602268D36923F40063F0
:101D7C00D36100206065012384F8513010BD80F8D8
:101D8C00503002F0F9F8CDE7012070472DE9F04111
:101D9C0082B090F85040012C00F0C3801D461746CD
:101DAC0088460446012380F85030FEF713FA0646A5
:101DBC0094F85130DBB2012B09D00220012384F8B6
:101DCC005130002384F8503002B0BDE8F081B8F1F6
:101DDC00000F00F09880002F00F09780032384F808
:101DEC00513000236365C4F83080A786E786A3636F
:101DFC00A387E38763642364A368B3F5004F1CD007
:101E0C0023681A6812F0400F03D11A6842F040029E
:101E1C001A60E368B3F5006F15D063680BB1012F3E
:101E2C0049D1226B236812781A73236B0133236315
:101E3C00E38E013B9BB2E3863DE02268136843F4DA
:101E4C0080431360DCE763680BB1012F15D1226B63
:101E5C0023681288DA60236B02332363E38E013B21
:101E6C009BB2E38609E0FEF7B5F9801BA84202D3CA
:101E7C00B5F1FF3F4BD1002D4BD0E38E9BB2002B25
:101E8C002CD023689A6812F0020FECD0226B1288C7
:101E9C00DA60236B02332363E38E013B9BB2E38650
:101EAC00EBE7FEF797F9801BA84202D3B5F1FF3F91
:101EBC0031D1002D31D0E38E9BB27BB123689A686F
:101ECC0012F0020FEDD0226B12781A73236B0133D0
:101EDC002363E38E013B9BB2E386ECE73246294653
:101EEC002046FFF701FF08B120236365A36833B9CF
:101EFC0001932368DA6801929B680193019B636DDF
:101F0C006BB900205AE7012058E7012056E703205F
:101F1C0054E7032052E7032050E703204EE701204B
:101F2C004CE7022050E7000070B4036A23F0010371
:101F3C000362036A4268846924F073040D6845EAFD
:101F4C00040623F002048B6823430D4DA84209D0EC
:101F5C000B4DA8420DD0426086614A684263036211
:101F6C0070BC704723F00803CC68234323F00403B0
:101F7C00EEE722F440724C6914438A692243EAE783
:101F8C00002C014030B4036A23F480730362036AAB
:101F9C004268C46924F073040D682C4323F4007365
:101FAC008D6843EA05230F4DA84209D00D4DA84278
:101FBC000ED04260C4614A68C263036230BC704791
:101FCC0023F40063CD6843EA052323F48063EDE733
:101FDC0022F440524D6942EA05128D6942EA05121B
:101FEC00E7E700BF002C014030B4036A23F48053B0
:101FFC000362036A4468C26922F4E6420D6842EA4D
:10200C00052223F400538D6843EA0533074DA8429B
:10201C0006D04460C2614A680264036230BC7047F7
:10202C0024F480444D6944EA8514F2E7002C014005
:10203C0010B4036A046A24F001040462846924F075
:10204C00F00444EA021223F00A030B438261036298
:10205C0010BC704710B4036A23F010030362846948
:10206C00036A24F4704444EA023223F0A00343EAE6
:10207C0001138261036210BC7047836823F0700304
:10208C00194341F00701816070470268D36843F03F
:10209C000103D3600268936803F00703062B03D097
:1020AC00136843F0010313600020704770477047BA
:1020BC0070477047704710B5044603681A6912F0F0
:1020CC00020F11D0DA6812F0020F0DD06FF002027D
:1020DC001A610123037703689B6913F0030F70D017
:1020EC00FFF7E6FF0023237723681A6912F0040F29
:1020FC0012D0DA6812F0040F0ED06FF004021A61DD
:10210C000223237723689B6913F4407F5FD020461A
:10211C00FFF7CEFF0023237723681A6912F0080F0C
:10212C0012D0DA6812F0080F0ED06FF008021A61A4
:10213C00042323772368DB6913F0030F4ED020466A
:10214C00FFF7B6FF0023237723681A6912F0100FEC
:10215C0012D0DA6812F0100F0ED06FF010021A6164
:10216C00082323772368DB6913F4407F3DD0204696
:10217C00FFF79EFF0023237723681A6912F0010FE3
:10218C0003D0DA6812F0010F36D123681A6912F005
:10219C00800F03D0DA6812F0800F34D123681A69EB
:1021AC0012F0400F03D0DA6812F0400F32D12368DE
:1021BC001A6912F0200F03D0DA6812F0200F30D118
:1021CC0010BDFFF774FF2046FFF773FF8AE7204628
:1021DC00FFF76DFF2046FFF76CFF9BE72046FFF7EC
:1021EC0066FF2046FFF765FFACE72046FFF75FFF71
:1021FC002046FFF75EFFBDE76FF001021A61204633
:10220C0001F0FEFCC1E76FF080021A61204600F07D
:10221C0057FAC3E76FF040021A612046FFF74AFFF6
:10222C00C5E76FF020021A61204600F048FAC7E7B4
:10223C0003681B4A90420AD0B0F1804F07D0A2F538
:10224C009432904203D002F58062904203D123F085
:10225C0070034A681343124A90420AD0B0F1804F7F
:10226C0007D0A2F59432904203D002F580629042DE
:10227C0003D123F44073CA68134323F080034A69E3
:10228C00134303608B68C3620B688362044B9842F0
:10229C0002D00123436170470B690363F9E700BF68
:1022AC00002C0140A8B110B5044690F83D305BB14C
:1022BC00022384F83D30211D2068FFF7B9FF01236C
:1022CC0084F83D30002010BD80F83C3001F05AFFFE
:1022DC00EEE701207047A8B110B5044690F83D30E8
:1022EC005BB1022384F83D30211D2068FFF7A0FF6D
:1022FC00012384F83D30002010BD80F83C30FFF7FE
:10230C00D5FEEEE70120704730B4036A23F01003CA
:10231C000362036A4468826922F4E6420D6842EA69
:10232C00052223F020038D6843EA05130E4DA842C5
:10233C0009D00D4DA8420ED0446082614A68826378
:10234C00036230BC704723F08003CD6843EA051369
:10235C0023F04003EDE724F440644D6944EA85041E
:10236C008D6944EA8504E7E7002C014038B590F804
:10237C003C30012B66D00D460446012380F83C30DE
:10238C00022380F83D300C2A1AD8DFE802F0071936
:10239C001919201919193419191947000068FFF770
:1023AC00C3FD2268936943F0080393612268936923
:1023BC0023F0040393612268936929690B439361A9
:1023CC00012384F83D30002084F83C0038BD0068BF
:1023DC00FFF79AFF2268936943F4006393612268C4
:1023EC00936923F48063936122689369296943EAB2
:1023FC0001239361E4E70068FFF7C4FD2268D36909
:10240C0043F00803D3612268D36923F00403D3613A
:10241C002268D36929690B43D361D1E70068FFF7C0
:10242C00E3FD2268D36943F40063D3612268D36966
:10243C0023F48063D3612268D369296943EA0123B9
:10244C00D361BDE70220C1E710B4846824F47F4453
:10245C0042EA03230B432343836010BC704790F87C
:10246C003C30012B66D010B50446012380F83C307B
:10247C00022380F83D300268936823F47F4323F0F5
:10248C00770393600B68402B4AD013D9602B3DD057
:10249C001ED9702B28D0B3F5005F30D1CB684A68B9
:1024AC0089680068FFF7D0FF2268936843F4804383
:1024BC00936024E0102B06D004D9202B03D0302BB2
:1024CC0001D01CE0DBB919462068FFF7D6FD16E0F9
:1024DC00502B14D1CA6849680068FFF7A9FD502138
:1024EC002068FFF7CAFD0AE0CB684A688968006873
:1024FC00FFF7AAFF2268936843F0770393600123E8
:10250C0084F83D30002084F83C0010BDCA6849684E
:10251C000068FFF79FFD60212068FFF7AEFDEEE736
:10252C00CA6849680068FFF783FD40212068FFF7FF
:10253C00A4FDE4E70220704710B50468A26822F0FD
:10254C0070024B68134323F007030A681343A3601C
:10255C004B68502B23D00BD9602B27D0702B2CD150
:10256C000B698A68C9680068FFF76EFF002010BD10
:10257C00402B22D10B68052B21D003681C6A1A6AE8
:10258C0022F001021A620268936923F0F0030969D0
:10259C0043EA0113936103681C620020E7E70A69B0
:1025AC0089680068FFF744FD0020E0E70A69896844
:1025BC000068FFF74FFD0020D9E70020D7E7012086
:1025CC00D5E790F83C30012B24D010B504460123FC
:1025DC0080F83C30022380F83D30FFF7ADFF034616
:1025EC0088B92168CA6822F04002CA602168CA68AA
:1025FC0022F48042CA60012284F83D20002284F833
:10260C003C20184610BD012384F83D30002284F88C
:10261C003C20F6E702231846704710B401F01F0166
:10262C00012303FA01F4036A23EA04030362036A35
:10263C008A401343036210BC7047000010B5044677
:10264C0001220068FFF7E9FF23680A4A93420BD086
:10265C002268936803F00703062B03D0136843F03A
:10266C0001031360002010BD5A6C42F400425A64FE
:10267C00EEE700BF002C014090F83C30012B1CD041
:10268C0070B4012680F83C60022380F83D3002686B
:10269C005568936825F070050C682C4323F0800571
:1026AC004B682B4354600268936080F83D600023B4
:1026BC0080F83C30184670BC704702207047704759
:1026CC0070470268D36823F49073D360026853692F
:1026DC0023F001035361202380F83A30704790F8BF
:1026EC003930DBB2212B2AD18368B3F5805F16D049
:1026FC00036A5A1C02621A7803685A60C38C013B45
:10270C009BB2C384EBB90268D36823F08003D36017
:10271C000268D36843F04003D36000207047036A1B
:10272C001B880268C3F30803536003691BB9036A6F
:10273C0002330362E2E7036A01330362DEE702203D
:10274C00704700207047000038B5044602681369D2
:10275C0023F44053C1680B4313618368026913432C
:10276C0042691A430168CB6823F4B05323F00C037D
:10277C001343CB600268536923F4407381690B43A4
:10278C0053610268214B9A421FD0FFF7BBF900EB53
:10279C00800000EB800063689B00B0FBF3F01C4DE5
:1027AC00A5FB00325109642202FB110213013233E2
:1027BC00A5FB03235B0903F0F00202EB011203F00B
:1027CC000F03216813448B6038BDFFF7ABF900EBA6
:1027DC00800000EB800063689B00B0FBF3F00C4DB5
:1027EC00A5FB00325109642202FB110213013233A2
:1027FC00A5FB03235B0903F0F00202EB011203F0CB
:10280C000F03216813448B60DEE700BF00380140E2
:10281C001F85EB512DE9F04105460F4616469846AB
:10282C00069C2B681B6837EA03030CBF01230023AB
:10283C00B3421DD1B4F1FF3FF3D02CB1FDF7CAFC6C
:10284C00A0EB0800A042ECD92A68D36823F4D0731B
:10285C00D3602A68536923F001035361202385F860
:10286C00393085F83A30002385F83830032000E001
:10287C000020BDE8F08158B310B5044690F839300B
:10288C000BB3242384F839302268D36823F4005323
:10289C00D3602046FFF758FF2268136923F4904356
:1028AC0013612268536923F02A0353612268D368A9
:1028BC0043F40053D3600020E063202384F83930C4
:1028CC0084F83A3010BD80F8383001F03BFDD8E781
:1028DC00012070472DE9F04182B01E4690F8393046
:1028EC00DBB2202B55D104460D469046002955D01D
:1028FC00002A55D090F83830012B53D0012380F8A2
:10290C0038300023C363212380F83930FDF762FC93
:10291C000746A4F82480A4F8268010E000963B46D5
:10292C00002280212046FFF775FF00283CD12B8820
:10293C002268C3F3080353602369C3B90235E38CDF
:10294C009BB2B3B1E38C013B9BB2E384A368B3F5B8
:10295C00805FE3D000963B46002280212046FFF7A3
:10296C0059FF18BB2A7823685A600135E7E701350F
:10297C00E5E700963B46002240212046FFF74AFF40
:10298C000346A8B9202284F83920002284F8382084
:10299C0000E00223184602B0BDE8F0810123F9E7FC
:1029AC000123F7E70223F5E70323F3E70323F1E71A
:1029BC000323EFE790F83A30DBB2202B20D109B398
:1029CC0012B390F83830012B20D081628285C285F9
:1029DC000023C363222280F83A2080F83830016843
:1029EC00CA6842F48072CA6001684A6942F0010206
:1029FC004A610168CA6842F02002CA6018467047F2
:102A0C000220704701207047012070470220704758
:102A1C00704708B50168CB6823F04003CB602023D6
:102A2C0080F83930FFF7F4FF002008BD08B590F8A6
:102A3C003A30DBB2222B45D18368B3F5805F0ED0E0
:102A4C00036903BB03685A68836A591C81621A7054
:102A5C00C38D013B9BB2C385F3B1002033E0826A86
:102A6C00036943B903685B68C3F308031380836A83
:102A7C0002338362ECE703685B68DBB21380836A22
:102A8C0001338362E4E703685B68826A511C8162EC
:102A9C0003F07F031370DBE70268D36823F0200395
:102AAC00D3600268D36823F48073D36002685369DF
:102ABC0023F001035361202380F83A3000F014FA1C
:102ACC00002000E0022008BD7047000010B504464D
:102ADC0002681368D168526913F00F0005D113F026
:102AEC00200F02D011F0200F53D1002867D012F024
:102AFC00010202D111F4907F61D013F0010F06D0C6
:102B0C0011F4807F03D0E06B40F00100E06313F020
:102B1C00040F04D01AB1E06B40F00200E06313F034
:102B2C00020F04D01AB1E06B40F00400E06313F024
:102B3C00080F04D01AB1E26B42F00802E263E26BB8
:102B4C00002A48D013F0200F02D011F0200F24D10E
:102B5C0023685B6903F04003E26B12F0080F00D1AD
:102B6C003BB32046FFF7ADFD23685A6912F0400FC6
:102B7C001BD05A6922F040025A61636B8BB11A4A1E
:102B8C005A63606BFDF73CFE28B3606B436B984750
:102B9C0021E02046FFF74AFF1DE02046FFF746FFE5
:102BAC00D6E72046FFF790FF15E02046FFF78CFF95
:102BBC0011E02046FFF788FF0023E3630BE013F0DE
:102BCC00800F02D011F0800F06D113F0400F02D00D
:102BDC0011F0400F04D110BD2046FFF780FDFAE73D
:102BEC002046FFF716FFF6E7F92B000808B5406AF8
:102BFC000023C385C384FFF767FF08BD38B50D4CB0
:102C0C0010212046FDF734FF054640212046FDF7F4
:102C1C002FFF05B130B900224FF400510648FDF7E3
:102C2C002EFF38BD01224FF400510348FDF727FF5A
:102C3C00F7E700BF000C01400010014008B500236D
:102C4C001A460A21014800F0B5FF08BD092C0008FE
:102C5C0008B5012208210248FDF711FF08BD00BF8D
:102C6C00000C014008B5FFF7F3FF0123002264219B
:102C7C00014800F09FFF08BDC12C000808B50022D8
:102C8C0008210248FDF7FBFE08BD00BF000C014007
:102C9C0008B500231A4641F28831054800F08AFF36
:102CAC00FFF7D6FF6420FDF79BFAFFF7E7FF08BD9F
:102CBC00712C000808B5FFF7E1FF08BD30B595B0E1
:102CCC0000F009F9184B187018B900F0E5F815B0B8
:102CDC0030BD164DAC1F2B1D0193AB1C00932B4626
:102CEC00AA1E291F204600F085F835F9062C35F967
:102CFC00043C35F9021CB4F90600B5F90250B4F9DC
:102D0C000A400394029501900091094905A801F02D
:102D1C00ADFB05A8FDF714FA4FF0FF3382B205A9FD
:102D2C000448FFF7D7FDD2E7AC0000208A02002050
:102D3C006CF50008EC03002008B500F0ADF800F0CD
:102D4C00CAF8054B187000231A464FF47A710348E1
:102D5C0000F030FF08BD00BFAC000020C92C0008FB
:102D6C0010B586B0134006AC04F8013D1423029351
:102D7C000123019300940A4601460248FEF788F9A4
:102D8C0006B010BDC002002010B584B0142402940B
:102D9C000193009201230A4601460248FEF72CFAE1
:102DAC0004B010BDC002002030B585B014461D46DD
:102DBC00142302930123019300920A46014604480E
:102DCC00FEF71AFA23781D40257005B030BD00BF00
:102DDC00C002002008B5182302461B21D020FFF7A3
:102DEC00BFFF08BD08B5182302461C21D020FFF7F1
:102DFC00B7FF08BDF0B585B007460E4615461C4614
:102E0C000023009301930293ADF80C300E236A4615
:102E1C003B21D020FFF7B8FF9DF800209DF8013032
:102E2C0043EA02233B809DF802209DF8033043EADD
:102E3C00022333809DF804209DF8053043EA0223D9
:102E4C002B809DF808209DF8093043EA022323804B
:102E5C009DF80A209DF80B3043EA02230A9A13804E
:102E6C009DF80C209DF80D3043EA02230B9A138039
:102E7C0005B0F0BD08B5C200402302F0F8026B218A
:102E8C00D020FFF76DFF08BD08B5072302466B2164
:102E9C00D020FFF765FF08BD08B50120FFF7F4FF50
:102EAC000020FFF797FF0020FFF79CFF0020FFF7A3
:102EBC00E1FF08BD00B583B002AA002302F8013D72
:102ECC007E237521D020FFF76FFF9DF80700400887
:102EDC0003B05DF804FB08B5FFF7ECFF342814BF12
:102EEC000020012008BD000038B5074D074C0A230F
:102EFC00012229462046FFF7EDFC012229462046F7
:102F0C00FFF758FD38BD00BFAD000020EC030020DA
:102F1C0008B5012202490348FFF74CFD08BD00BF6C
:102F2C00AD000020EC03002008B50C4B1B780E2BD9
:102F3C0008D85A1C094901EB8202526812B10133BC
:102F4C000B7002E0054B00221A70044B1A7803EB4D
:102F5C0082035B6803B1984708BD00BFB000002036
:102F6C0010B584B0002000F0CBFA144B002402946E
:102F7C004FF4784201925A6800921B68104A21461D
:102F8C00204600F034FA0F4B02944FF4FC6201928D
:102F9C005A6800921B680C4A1E21204600F027FA42
:102FAC000A4B02941F2201925A6800921B68084A2D
:102FBC005421204600F01BFA04B010BD180000206C
:102FCC009CF5000810000020D0F500080800002037
:102FDC00F0F5000800B585B0002000F091FA084B20
:102FEC00002002904FF6FF7201925A6800921B6803
:102FFC00044A014600F0FBF905B05DF804FB00BF84
:10300C0010000020FCF5000800B585B01F2000F072
:10301C0077FA074B1F220292002001905A68009207
:10302C001B68044A014600F0E2F905B05DF804FBA8
:10303C001000002004F6000800B585B04FF478406D
:10304C0000F05EFA074B4FF4784202920020019098
:10305C005A6800921B68044A014600F0C8F905B092
:10306C005DF804FB100000200CF6000800B585B0DC
:10307C004FF4FC6000F044FA074B4FF4FC620292F0
:10308C00002001905A6800921B68044A014600F027
:10309C00AEF905B05DF804FB1000002010F6000836
:1030AC0000B585B040F2FF7000F02AFA074B40F2F1
:1030BC00FF720292002001905A6800921B68044A29
:1030CC00014600F094F905B05DF804FB10000020F7
:1030DC0018F6000800B585B04FF61F0000F010FA86
:1030EC00074B4FF61F020292002001905A68009283
:1030FC001B68044A014600F07AF905B05DF804FB40
:10310C001000002020F6000800B585B04FF6E070E6
:10311C0000F0F6F9074B4FF6E07202920020019096
:10312C005A6800921B68044A014600F060F905B029
:10313C005DF804FB1000002028F6000800B585B0EF
:10314C004FF6FF7000F0DCF9074B4FF6FF7202925E
:10315C00002001905A6800921B68044A014600F056
:10316C0046F905B05DF804FB1000002030F60008AD
:10317C0000B583B0054B009380231A460021084606
:10318C0000F0E4F903B05DF804FB00BFC84C000884
:10319C0008B500F0C1F90E4B0E4A5A600E4A9A60FF
:1031AC000E4ADA600E4A1A610E4A5A610E4A9A6148
:1031BC000E4ADA610E4A1A620E4A5A620E4A9A6234
:1031CC0000231A464FF4FA710C4800F0F3FC08BDCA
:1031DC00B00000206D2F0008E12F0008153000080A
:1031EC004530000879300008AD300008E1300008A7
:1031FC0015310008493100087D310008352F0008D1
:10320C0008B500224FF400410148FDF738FC08BD19
:10321C000008014008B501224FF400410148FDF7B8
:10322C002EFC08BD0008014010B50A4C00224FF4DA
:10323C0080512046FDF723FC0520FCF7D1FF01222D
:10324C004FF480512046FDF71AFC0520FCF7C8FF0F
:10325C0010BD00BF0008014010B582B002AC04F8EC
:10326C00010D00224FF400610548FDF708FC142302
:10327C00012221460348FEF789FD02B010BD00BFB4
:10328C00000801401403002038B504460D46012205
:10329C004FF400610448FDF7F2FB1423AAB2214657
:1032AC000248FEF773FD38BD0008014014030020EE
:1032BC00F8B5461C02780AE039462046FFF7E4FFD1
:1032CC003C4410E0FCF78CFF34462A462646531E3D
:1032DC00DDB292B1344614F8020BFFF7BDFF7678DD
:1032EC0016F07F07E8D116F0800FEED0661C207820
:1032FC00FF28E7D14FF4FA70E4E7F8BDF0B583B0DE
:10330C0007460D4616461C462A20FFF7A5FF00234C
:10331C008DF8043001378DF805708DF806300136C4
:10332C008DF8076004210DEB0100FFF7ADFF2B209A
:10333C00FFF792FF02358DF8055002348DF80740E7
:10334C0004210DEB0100FFF79FFF2C20FFF784FFFA
:10335C0003B0F0BD82B02DE9F04383B091460B93DE
:10336C00BDF83470BDF83860C0B2C9B2DAB20244EC
:10337C00D2B2C3F307230B44DBB2013B013ADBB2FD
:10338C00D2B2FFF7BBFF4FF000081EE0330A8DF8F6
:10339C0004308DF80560022101A8FFF775FF013498
:1033AC009DF82C30A3420ED905FA04F313F4004F08
:1033BC00ECD03B0A8DF804308DF80570022101A881
:1033CC00FFF762FFEBE708F101089DF82D2042455D
:1033DC0008D9A9F1200302FB03830C9A32F813508D
:1033EC000024DDE703B0BDE8F04302B0704782B0C3
:1033FC002DE9F04385B006460D4617460D93BDF8F2
:10340C003C90BDF84080FFF7FBFE10E00137002632
:10341C000DE0CDF80880CDF804900E9B00930D9B29
:10342C0029463046FFF796FF3444A6B201373A7866
:10343C007AB19DF8344033197F2BEADD9DF8353095
:10344C001D44ADB22B447F2B03DC202ADED000269A
:10345C00DFE7FFF7DFFE05B0BDE8F04302B07047D1
:10346C002DE9F04182B0BDF820807F2840D8064677
:10347C000C4617461D467F293AD88318013B7F2BF3
:10348C0002DDC0F18007BFB26319013B7F2B02DD67
:10349C00C4F18005ADB2FFF7B3FEF0B2E1B2C219D0
:1034AC00D2B24B19DBB2013B013ADBB2D2B2FFF71D
:1034BC0025FF4FEA18238DF804308DF80580012282
:1034CC004FF400610C48FDF7DAFA0CE04FF0FF33D3
:1034DC00022201A90948FEF759FC013CA4B2002CB8
:1034EC00F4D1013DADB20DB13C46F8E7FFF792FEC9
:1034FC0002B0BDE8F08100BF0008014014030020B9
:10350C0000B583B0009080231A4600210846FFF7CF
:10351C00A7FF03B05DF804FB10B50020FFF7F0FF28
:10352C00FFF782FEFFF76CFE074C2046FFF7C0FE4C
:10353C0004F13C00FFF7BCFE04F14C00FFF7B8FEB1
:10354C00FFF768FE10BD00BFDCF400087F2826D80A
:10355C007F2924D8F8B58418013C7F2C03DCCC18C7
:10356C00013C7F2C00DDF8BD1E4617460D46044677
:10357C00FFF746FEE0B2E9B2C219D2B28B19DBB248
:10358C00013B013ADBB2D2B2FFF7B8FE06FB07F102
:10359C0049000698FFF778FEFFF73CFEE3E770471B
:1035AC0010B5154C012211462046FDF768FA012290
:1035BC0002212046FDF763FA012204212046FDF783
:1035CC005EFA012208212046FDF759FA012210214A
:1035DC002046FDF754FA012220212046FDF74FFA30
:1035EC00012240212046FDF74AFA01228021204683
:1035FC00FDF745FA10BD00BF0008014010B5114C95
:10360C0001212046FDF741FA02212046FDF73DFA43
:10361C0004212046FDF739FA08212046FDF735FA3A
:10362C0010212046FDF731FA20212046FDF72DFA16
:10363C0040212046FDF729FA80212046FDF725FA86
:10364C0010BD00BF0008014010B5184B1B78092BAA
:10365C000BD85A1C02EB42029100144A0A4492689D
:10366C001AB10133114A137002E0104B00221A7088
:10367C000E4C94F87C0000F0BBFA237803EB430368
:10368C009A001444636803B19847084C20784300AF
:10369C0019188A00A118084600231A4689898068DF
:1036AC0000F088FA84F87C0010BD00BFF000002008
:1036BC0008B507280AD8DFE800F0040A10161C2207
:1036CC00282E012211461748FDF7D9F908BD012211
:1036DC0002211448FDF7D3F9F8E70122042111481F
:1036EC00FDF7CDF9F2E7012208210E48FDF7C7F9E5
:1036FC00ECE7012210210B48FDF7C1F9E6E70122A6
:10370C0020210848FDF7BBF9E0E7012240210548DC
:10371C00FDF7B5F9DAE7012280210248FDF7AFF990
:10372C00D4E700BF0008014008B507280AD8DFE835
:10373C0000F0040A10161C22282E00220121174822
:10374C00FDF79DF908BD002202211448FDF797F9F9
:10375C00F8E7002204211148FDF791F9F2E7002265
:10376C0008210E48FDF78BF9ECE7002210210B48DD
:10377C00FDF785F9E6E7002220210848FDF77FF9DF
:10378C00E0E7002240210548FDF779F9DAE700224D
:10379C0080210248FDF773F9D4E700BF000801400F
:1037AC0010B5154C002201212046FDF768F90022C6
:1037BC0002212046FDF763F9002204212046FDF783
:1037CC005EF9002208212046FDF759F9002210214C
:1037DC002046FDF754F9002220212046FDF74FF931
:1037EC00002240212046FDF74AF900228021204684
:1037FC00FDF745F910BD00BF0008014008B5FFF703
:10380C00CFFF024B002283F87D2008BDF000002082
:10381C0010B5154C012211462046FDF730F9012256
:10382C0002212046FDF72BF9012204212046FDF749
:10383C0026F9012208212046FDF721F90122102149
:10384C002046FDF71CF9012220212046FDF717F92F
:10385C00012240212046FDF712F901228021204649
:10386C00FDF70DF910BD00BF0008014008B5FFF7CA
:10387C00CFFF024B002283F87E2008BDF000002011
:10388C0038B50546164C002201212046FDF7F7F805
:10389C00002202212046FDF7F2F8002204212046E6
:1038AC00FDF7EDF8002208212046FDF7E8F800228C
:1038BC0010212046FDF7E3F8002220212046FDF7D9
:1038CC00DEF8002240212046FDF7D9F800228021A5
:1038DC002046FDF7D4F82846FFF7EAFE38BD00BFB6
:1038EC000008014008B5094B93F87D00072804D95E
:1038FC00064B002283F87D2008BDFFF7C1FF034A69
:10390C0092F87D30013382F87D30F5E7F00000202D
:10391C0038B50546164C012211462046FDF7AFF886
:10392C00012202212046FDF7AAF80122042120469B
:10393C00FDF7A5F8012208212046FDF7A0F8012289
:10394C0010212046FDF79BF8012220212046FDF78F
:10395C0096F8012240212046FDF791F801228021A2
:10396C002046FDF78CF82846FFF7DEFE38BD00BF79
:10397C000008014008B5094B93F87E00072804D9CC
:10398C00064B002283F87E2008BDFFF7C1FF034AD7
:10399C0092F87E30013382F87E30F5E7F00000209B
:1039AC0010B51A4B1A4A5A601A4A9A60C8229A8160
:1039BC00194A1A61194A5A6132221A831849D96173
:1039CC00184919629A841A7802EB420081000B4460
:1039DC005B681BB10D4B0B445B6898470B4C207814
:1039EC00430019188A00A118084600231A46898931
:1039FC00806800F0DFF884F87C0000231A464FF44E
:103A0C00FA61094800F0D6F810BD00BFF0000020A4
:103A1C00AD3500080936000809380008F1380008EF
:103A2C0079380008813900085536000808B5024875
:103A3C00FCF750FD08BD00BF9002002000B587B018
:103A4C00094B1A68094901A800F010FD01A8FCF700
:103A5C0077FB4FF0FF3382B201A90548FEF73AFF1E
:103A6C0007B05DF804FB00BF7001002038F60008B9
:103A7C00EC03002008B5FCF7C7FB014B186008BD30
:103A8C007001002008B50848FCF724FD00231A46F5
:103A9C004FF47A71054800F08DF800231A46C821BE
:103AAC00034800F087F808BD90020020493A00084E
:103ABC00393A0008024B1B689863D9631A64704743
:103ACC006C03002008B5C2B2C0F30721C0F3074055
:103ADC00FFF7F0FF08BD000010B50F4B1B78ABB122
:103AEC000E4A1368013313600C4C206800F5E0009B
:103AFC0000F5E040FFF7E6FF2368FF2B00D023B969
:103B0C00054A137883F00103137010BD034A136840
:103B1C00013B1360E8E700BF200000207401002087
:103B2C0010B50A4C04212046FEF788FD08212046DA
:103B3C00FEF784FD0C212046FEF780FD00231A467B
:103B4C000521034800F036F810BD00BF6C030020BF
:103B5C00E53A000870B51649D1E90023541C43F12D
:103B6C000005C1E90045002401E00134E4B20E2C4B
:103B7C001DD80F4B03EB04139B68002BF5D00C4A9C
:103B8C0002EB0412D38901339BB2D3819289934205
:103B9C00EBD1074E06EB0416B36830699847002347
:103BAC00F381737D012BE0D10023B360DDE770BDA1
:103BBC007801002070B4064600200E2813D80B4C58
:103BCC0004EB0014A46814B10130C0B2F5E7074C43
:103BDC0004EB0015AE60A9812A610022EA812875E8
:103BEC006B7570BC7047FF20FBE700BF78010020AD
:103BFC00024B03EB00100023836070477801002018
:103C0C0008B50268034B1B689A4200D008BDFFF749
:103C1C00A1FFFBE7AC03002000B585B000230193A6
:103C2C00029303931148124A026083600373037575
:103C3C004FF46022C261436001230361FCF7ECFC8A
:103C4C0068B908230193012302930023039301A96C
:103C5C000648FCF763FB28B905B05DF804FB00F0DF
:103C6C0069F9EEE700F066F9F6E700BF9002002074
:103C7C000024014000B587B0002302930393049302
:103C8C0005930268154B9A4202D007B05DF804FB0D
:103C9C0003F56C439A6942F400729A619A6902F4D2
:103CAC0000720092009A9A6942F008029A619B692C
:103CBC0003F008030193019B012302930323039355
:103CCC0002A90748FCF7E8FD002204211220FCF7AA
:103CDC003FFD1220FCF770FDD7E700BF0024014028
:103CEC00000C01402DE9F04389B0002404940594A4
:103CFC0006940794324B9A6942F010029A619A69C1
:103D0C0002F010020092009A9A6942F020029A6125
:103D1C009A6902F020020192019A9A6942F0040217
:103D2C009A619A6902F004020292029A9A6942F02C
:103D3C0008029A619B6903F008030393039BDFF865
:103D4C00889022464FF400514846FCF798FEDFF865
:103D5C007C80224649F6FF014046FCF790FE194D47
:103D6C00224608212846FCF78AFE4FF400530493A0
:103D7C000127059706940226079604A94846FCF7E6
:103D8C008BFD49F6FF03049305970694079604A947
:103D9C004046FCF781FD082304930597069407968B
:103DAC0004A92846FCF778FD502304930594069447
:103DBC0004A92846FCF770FD09B0BDE8F08300BFEC
:103DCC0000100240000C01400010014000080140AE
:103DDC0008B50B480B4B03600B4B4360002383600F
:103DEC00C3604FF48042026143618361C36103622B
:103DFC00FDF77EF800B908BD00F09CF8FBE700BFAA
:103E0C00C002002000580040A086010010B586B00A
:103E1C00002302930393049305930268114B9A4277
:103E2C0001D006B010BD104CA36943F00803A36188
:103E3C00A36903F008030093009B4FF440630293C3
:103E4C00122303930323059302A90848FCF724FDCE
:103E5C00E36943F48003E361E36903F480030193B2
:103E6C00019BDEE70058004000100240000C0140AE
:103E7C0070B594B000240C940D940F941094059488
:103E8C00069407940894099401940294039404945E
:103E9C0001260A964FF480330B930E96022511954A
:103EAC0012934FF4801313930AA8FDF731FB0F23E1
:103EBC000593069507944FF4806308930994314653
:103ECC0005A8FDF765FD01954FF48043039301A808
:103EDC00FDF738FE14B070BD08B5FCF75DF9FFF7BF
:103EEC00C7FFFFF7FFFE00F027F800F0A3F900F082
:103EFC000FFA00F0FDF8FFF78FFEFFF769FF0B4894
:103F0C00FEF7C3F80A48FFF781FFFFF749FDFEF7FC
:103F1C00BFFEFFF705FEFFF73BF9FEF7F9FFFEF7D3
:103F2C000BFFFFF7AFFDFEF789FEFEE7AC030020A9
:103F3C00C00200207047000008B50D480D4B03600F
:103F4C004FF48273436000238360C3600361436159
:103F5C004FF400728261C3610362436283620A237D
:103F6C00C362FDF7D5FE00B908BDFFF7E3FFFBE721
:103F7C00140300200038004000B587B000230293E2
:103F8C000393049305930268124B9A4202D007B034
:103F9C005DF804FB03F5EC33DA6942F48042DA6134
:103FAC00DA6902F480420092009A9A6942F008029F
:103FBC009A619B6903F008030193019B4FF4204322
:103FCC000293022303930323059302A90248FCF7EF
:103FDC0063FCDCE700380040000C014082B00E4B63
:103FEC009A6942F001029A619A6902F00102009208
:103FFC00009ADA6942F08052DA61DB6903F080538F
:10400C000193019B054A536823F0E06343F000736E
:10401C00536002B0704700BF001002400000014026
:10402C007047FEE7FEE7FEE7FEE770477047704714
:10403C0008B5FCF7C3F808BD08B50248FCF7E8F86A
:10404C0008BD00BF9002002008B50248FEF733F807
:10405C0008BD00BFAC03002008B50248FEF736FDD2
:10406C0008BD00BFEC03002008B503460B4A1268DC
:10407C0042B10A4A106803446A46934206D8074A7A
:10408C00136008BD054A06491160F2E700F0C4F957
:10409C000C2303604FF0FF30F3E700BF70020020E9
:1040AC00300400200F4B1A6842F001021A60596864
:1040BC000D4A0A405A601A6822F0847222F4803247
:1040CC001A601A6822F480221A605A6822F4FE02DE
:1040DC005A604FF41F029A60044B4FF000629A60D2
:1040EC00704700BF001002400000FFF800ED00E038
:1040FC0000B58DB00023089309930A930B93039397
:10410C000493059306930793019302931B481C4A4F
:10411C00026030224260836040F2E732C260036189
:10412C0043618361FEF7BEF8D8B90CA94FF48053F4
:10413C0041F8103D1148FEF792F9A8B900230393FA
:10414C00049303A90D48FEF73CFA80B900230193B0
:10415C00029301A90948FEF78FFA58B90DB05DF822
:10416C0004FBFFF7E7FEE0E7FFF7E4FEE6E7FFF707
:10417C00E1FEEBE7FFF7DEFEF0E700BFAC0300204B
:10418C00002C014000B583B00368134A934205D05C
:10419C00124A934215D003B05DF804FB104B9A6998
:1041AC0042F400629A619B6903F400630093009BE4
:1041BC00002204211920FCF7CBFA1920FCF7FCFA99
:1041CC00E9E7074BDA6942F00402DA61DB6903F0D4
:1041DC0004030193019BDEE7002C01400008004022
:1041EC000010024000B587B00023029303930493A0
:1041FC00059302680D4B9A4202D007B05DF804FBA0
:10420C0003F502339A6942F008029A619B6903F044
:10421C0008030193019B4FF46073029302230393F1
:10422C00059302A90248FCF737FBE6E700080040BB
:10423C00000C014000B58FB000230A930B930C9334
:10424C000D9308930993019302930393049305939D
:10425C00069307932C482D4A026008224260836023
:10426C00FF22C260036180238361FEF71BF80028E4
:10427C0035D10EA94FF4805341F8103D2248FEF77A
:10428C00EEF878BB2048FEF726F870BB00230893A5
:10429C00099308A91C48FEF7EFF948BB602301936A
:1042AC004FF4FA73029300230393059304220DEB4E
:1042BC0002011548FEF75AF8E8B9082201A912487C
:1042CC00FEF754F8D0B90C2201A90F48FEF74EF8AE
:1042DC00B8B90D48FFF786FF0FB05DF804FBFFF788
:1042EC0029FEC6E7FFF726FECCE7FFF723FECDE756
:1042FC00FFF720FED2E7FFF71DFEDEE7FFF71AFE01
:10430C00E1E7FFF717FEE4E76C030020000800402C
:10431C0008B50A480A4B03604FF416534360002358
:10432C008360C36003610C2242618361C361FEF749
:10433C00A2FA00B908BDFFF7FDFDFBE7EC03002076
:10434C000038014030B587B00023029303930493E7
:10435C00059302681B4B9A4201D007B030BD03F5A0
:10436C0058439A6942F480429A619A6902F48042F5
:10437C000092009A9A6942F004029A619B6903F0D8
:10438C0004030193019B4FF40073029302230393E4
:10439C00032305930C4D02A92846FCF77DFA4FF434
:1043AC008063029300240394049402A92846FCF72A
:1043BC0073FA224601212520FCF7CAF92520FCF7C7
:1043CC00FBF9CAE70038014000080140002103E076
:1043DC000B4B5B58435004310A480B4B42189A4222
:1043EC00F6D30A4A02E0002342F8043B084B9A42F7
:1043FC00F9D3FFF757FE00F015F8FFF76DFD704786
:10440C0088F60008000000208C000020900000209E
:10441C0030040020FEE70000014B1868704700BF15
:10442C002800002070B500250C4E0D4CA41BA410C8
:10443C00A54209D100F02CFC00250A4E0A4CA41B05
:10444C00A410A54205D170BD56F82530984701350A
:10445C00EEE756F8253098470135F2E780F600086C
:10446C0080F6000880F6000884F600080EB46FF0A1
:10447C00004100B59CB01DAB0290069007910491D1
:10448C000848094953F8042B0591006802A90193C7
:10449C0000F066F80022029B1A701CB05DF804EB69
:1044AC0003B07047280000200802FFFF2DE9F047F9
:1044BC008E6882469E420C469046994637D88A8929
:1044CC0012F4906F31D00223256809696F1A65695F
:1044DC0005EB450595FBF3F509F101033B449D42C2
:1044EC0038BF1D46530530D5294600F037FB06462C
:1044FC0050B90C234FF0FF30CAF80030A38943F0B9
:10450C004003A381BDE8F0873A46216900F0B6FA72
:10451C00A38923F4906343F08003A38126613E4476
:10452C0026604E466561ED1BA5604E4500D94E4692
:10453C0032464146206800F0ACFAA36800209B1B71
:10454C00A36023681E442660DCE72A4600F060FB6B
:10455C0006460028E2D12169504600F0B3FAC8E7BC
:10456C002DE9F04F1D468B899DB01F0680460C46E9
:10457C0016460FD50B696BB9402100F0EFFA20609D
:10458C00206128B90C23C8F800304FF0FF30C8E088
:10459C00402363610023099320238DF829303023B5
:1045AC004FF0010B8DF82A30039537463D4615F830
:1045BC00013B0BB1252B3ED1B7EB060A0BD0534672
:1045CC00324621464046FFF771FF013000F0A480CF
:1045DC00099B534409933B78002B00F09D800023EA
:1045EC004FF0FF32CDE90523049307938DF8533038
:1045FC001A932F46052217F8011B504800F030FA89
:10460C00049BD0B9D90644BF20228DF853201A0739
:10461C0044BF2B228DF853202A782A2A15D02F46F6
:10462C0000200A25079A394611F8013B303B092B2B
:10463C004DD9B8B10FE02F46B8E7404A3D46801A35
:10464C000BFA00F018430490D3E7039A111D12687B
:10465C000391002A01DB079204E0524243F002036B
:10466C00079204933B782E2B0CD17B782A2B33D1D9
:10467C00039B02371A1D1B680392002BB8BF4FF027
:10468C00FF3305932E4D03223978284600F0E8F9C4
:10469C0038B14023401B03FA00F0049B013703435D
:1046AC0004933978062227487E1C8DF8281000F0D8
:1046BC00D7F9002838D0244B13BB039B073323F0C6
:1046CC00070308330393099B4B4409936DE705FBE0
:1046DC00023201200F46A6E700230A2519460137AE
:1046EC000593384610F8012B303A092A03D9002BD0
:1046FC00C8D00591C6E705FB012101230746F0E769
:10470C0003AB00932246114B04A94046AFF3008043
:10471C00B0F1FF3F8146D6D1A3895B063FF535AF9B
:10472C0009981DB0BDE8F08F03AB00932246074BF0
:10473C0004A9404600F082F8EAE700BF4CF60008F6
:10474C0052F6000856F6000800000000B9440008B4
:10475C002DE9F04791461F468A680B69064693423D
:10476C00B8BF1346C9F8003091F843200C46DDF869
:10477C00208012B10133C9F800302368990642BF7A
:10478C00D9F800300233C9F80030256815F0060559
:10479C0007D104F1190AE368D9F800209B1AAB423F
:1047AC0029DC94F843302268003318BF01239206A9
:1047BC002ED404F1430239463046C047013021D093
:1047CC002368E56803F00603042B18BF0025D9F80D
:1047DC0000204FF0000908BFAD1AA368226908BF7A
:1047EC0025EAE5759342C4BF9B1AED181A344D4562
:1047FC001AD1002008E00123524639463046C04702
:10480C00013003D14FF0FF30BDE8F0870135C2E72E
:10481C003020E11881F843005A1C94F845102244CA
:10482C00023382F84310C4E701232246394630464E
:10483C00C0470130E6D009F10109D8E72DE9F04372
:10484C0001F1430C0C46097E85B06E2917460646CD
:10485C0098460C9A00F0B38022D8632936D00AD837
:10486C00002900F0B980582900F0838004F142053A
:10487C0084F8421032E0642901D06929F6D120680D
:10488C001368050603F104012AD51B681160002B7F
:10489C0003DA2D225B4284F843206F480A2239E068
:1048AC00732900F09D8008D86F2920D07029DDD1A4
:1048BC00236843F02003236003E0752917D078297F
:1048CC00D4D17823654884F8453055E0136804F159
:1048DC004205191D1B68116084F8423001238CE0DD
:1048EC001B6810F0400F116018BF1BB2CFE71368A4
:1048FC002568181D1060280601D51B6802E06806A3
:10490C00FBD51B886F2914BF0A22082252480021AC
:10491C0084F843106568002DA560C0F2958021686D
:10492C0021F004012160002B3DD1002D40F08E8040
:10493C006546082A0BD12368DB0708D52369626812
:10494C009A42DEBF302305F8013C05F1FF35ACEB94
:10495C0005032361CDF800803B4603AA214630466F
:10496C00FFF7F6FE01304DD14FF0FF3005B0BDE83A
:10497C00F083394884F84510136821681D1D1B68A5
:10498C0015600A060BD5CA0744BF41F0200121600F
:10499C001BB9226822F0200222601022B7E74D06D4
:1049AC0048BF9BB2EFE76546B3FBF2F102FB113354
:1049BC00C35C05F8013D0B460029F5D1B9E7136836
:1049CC002568181D6169106028061B6801D51960DF
:1049DC0002E06A06FBD51980002365462361B9E71E
:1049EC001368191D11601D6862680021284600F0CB
:1049FC0037F808B1401B606063682361002384F8BA
:104A0C004330A7E723692A4639463046C047013070
:104A1C00AAD023689B0713D4E068039B9842B8BFC5
:104A2C001846A3E701234A4639463046C0470130B1
:104A3C009AD00135E368039A9B1AAB42F2DCEBE7A0
:104A4C00002504F11909F5E7002BACD1037804F12A
:104A5C00420584F842306CE75DF600086EF60008FB
:104A6C0010B5C9B202449042034601D1002303E0C1
:104A7C001C7801308C42F6D1184610BD10B5431E7F
:104A8C000A44914200D110BD11F8014B03F8014FBB
:104A9C00F7E7884210B501EB020307D8421E994292
:104AAC000AD011F8014B02F8014FF8E78342F5D90F
:104ABC008118D21AD34200D110BD13F8014D01F860
:104ACC00014DF7E738B50546002943D051F8043CB1
:104ADC000C1F002BB8BFE41800F0D0F81E4A136866
:104AEC00104633B9636014602846BDE8384000F0C6
:104AFC00C6B8A3420BD921686218934201BF1A6849
:104B0C005B685218226063600460EDE713465A68D4
:104B1C000AB1A242FAD919685818A0420BD12068E0
:104B2C000144581882421960DED110685268014461
:104B3C0019605A60D8E702D90C232B60D4E720689F
:104B4C0021188A4201BF11685268091821606260FD
:104B5C005C60C9E738BD00BF7802002070B5CD1C81
:104B6C0025F0030508350C2D38BF0C25002D064605
:104B7C0001DBA94203D90C233360002070BD00F087
:104B8C007DF8214A1468214691B9204C23681BB941
:104B9C00304600F063F820602946304600F05EF89D
:104BAC00431C24D10C233046336000F068F8E4E752
:104BBC000B685B1B18D40B2B0FD90B60CC18CD508A
:104BCC00304600F05CF804F10B00231D20F00700C8
:104BDC00C31AD3D05A42E250D0E74B688C4216BF6E
:104BEC00636013600C46EBE70C464968CCE7C41CC9
:104BFC0024F00304A04205D0211A304600F02EF810
:104C0C000130CFD02560DBE7780200207C02002049
:104C1C00F8B5074614460E4621B9BDE8F8401146D2
:104C2C00FFF79CBF22B9FFF74DFF25462846F8BD7C
:104C3C0000F026F8A0420FD221463846FFF78EFF2F
:104C4C0005460028F2D031462246FFF717FF3146C1
:104C5C003846FFF737FFE9E73546E7E738B5002375
:104C6C00054C054608462360FFF7FEF9431C02D1AC
:104C7C00236803B12B6038BD2C04002070477047AB
:104C8C0051F8043C181F002BBCBF0B58C0187047C0
:104C9C00F8B500BFF8BC08BC9E467047F8B500BF1D
:084CAC00F8BC08BC9E467047ED
:104CB40002030405060708090A0B0C0D0E0F101059
:104CC40001020000057F057F057F057F057F057FC5
:104CD400057F057F057F057F0D9F25DF463F6E9F7E
:104CE4008EDF9F1FAF3FAF3FB73FB75FBF5FBF5F71
:104CF400BF5FBF5FBF5FBF5FBF5FBF5FBF5FBF5FC0
:104D0400BF5FBF5FBF5FBF5FBF5FBF5FBF5FBF5FAF
:104D1400BF5FBF5FBF5FBF5FBF5FBF5FBF5FBF5F9F
:104D2400BF5FBF5FBF5FBF5FBF5FBF5FBF5FBF5F8F
:104D3400BF5FBF5FBF5FBF5FBF5FBF5FBF5FBF5F7F
:104D4400BF5FBF5FBF5FBF5FBF5FBF5FBF5FBF5F6F
:104D5400BF5FBF5FBF5FBF5FBF5FBF5FBF5FBF5F5F
:104D6400BF5FBF5FBF5FBF5FBF5FBF5FBF5FBF5F4F
:104D7400BF5FBF5FBF5FBF5FBF5FBF5FBF5FBF5F3F
:104D8400BF5FBF5FBF5FBF5FBF5FBF5FBF5FBF5F2F
:104D9400BF5FBF5FBF5FBF5FBF5FBF5FB75FB73F4F
:104DA400AF3FAF3F9F1F8EDF6E9F463F25DF0D9FB6
:104DB400057F057F057F057F057F057F057F057FCF
:104DC400057FFFFF057F057F057F057F057F057F45
:104DD400057F057F059F1DBF3E1F667F86DF96FF0B
:104DE400A71FA71FAF3FAF3FB73FB75FBF5FBF5F0F
:104DF400B75FB73FB73FB73FB73FB73FB73FB73FDF
:104E0400B73FB73FB73FB73FB73FB73FB73FB73FEE
:104E1400B73FB73FB73FB73FB73FB73FB73FB73FDE
:104E2400B73FB73FB73FB73FB73FB73FB73FB73FCE
:104E3400B73FB73FB73FB73FB73FB73FB73FB73FBE
:104E4400B73FB73FB73FB73FB73FB73FB73FB73FAE
:104E5400B73FB73FB73FB73FB73FB73FB73FB73F9E
:104E6400B73FB73FB73FB73FB73FB73FB73FB73F8E
:104E7400B73FB73FB73FB73FB73FB73FB73FB73F7E
:104E8400B73FB73FB73FB73FB73FB73FB73FB73F6E
:104E9400B73FB73FB73FB75FBF5FBF5FB75FB73FCE
:104EA400AF3FAF3FA71FA71F96FF86DF667F3E1F5A
:104EB4001DBF059F057F057F057F057F057F057F56
:104EC400057FFFFF057F057F057F057F057F057F44
:104ED400057F0D9F25DF4E3F769F8EDF96FF9EFF59
:104EE4009F1FA71FAF3FAF3FAF3FA71F9EFF96FF78
:104EF40086DF7EBF7EBF76BF769F769F769F769F46
:104F0400769F769F769F769F769F769F769F769FF5
:104F1400769F769F769F769F769F769F769F769FE5
:104F2400769F769F769F769F769F769F769F769FD5
:104F3400769F769F769F769F769F769F769F769FC5
:104F4400769F769F769F769F769F769F769F769FB5
:104F5400769F769F769F769F769F769F769F769FA5
:104F6400769F769F769F769F769F769F769F769F95
:104F7400769F769F769F769F769F769F769F769F85
:104F8400769F769F769F769F769F769F769F769F75
:104F940076BF7EBF7EBF86DF96FF9EFFA71FAF3F13
:104FA400AF3FAF3FA71F9F1F9EFF96FF8EDF769FE9
:104FB4004E3F25DF0D9F057F057F057F057F057F1C
:104FC400057FFFFF057F057F057F057F057F057F43
:104FD4000D9F2DFF565F769F86DF8EDF8EDF96FF57
:104FE4009F1FA71F9EFF8EDF769F5E7F463F35FF84
:104FF40025DF1DBF159F0D9F0D9F0D9F0D9F0D9FBD
:105004000D9F0D9F0D9F0D9F0D9F0D9F0D9F0D9F3C
:105014000D9F0D9F0D9F0D9F0D9F0D9F0D9F0D9F2C
:105024000D9F0D9F0D9F0D9F0D9F0D9F0D9F0D9F1C
:105034000D9F0D9F0D9F0D9F0D9F0D9F0D9F0D9F0C
:105044000D9F0D9F0D9F0D9F0D9F0D9F0D9F0D9FFC
:105054000D9F0D9F0D9F0D9F0D9F0D9F0D9F0D9FEC
:105064000D9F0D9F0D9F0D9F0D9F0D9F0D9F0D9FDC
:105074000D9F0D9F0D9F0D9F0D9F0D9F0D9F0D9FCC
:105084000D9F0D9F0D9F0D9F0D9F0D9F0D9F0D9FBC
:105094000D9F159F1DBF25DF35FF463F5E7F769F21
:1050A4008EDF9EFFA71F9F1F96FF8EDF8EDF86DF9A
:1050B400769F565F2DFF0D9F057F057F057F057F3A
:1050C400057FFFFF057F057F057F057F057F159F12
:1050D4002DFF5E5F769F7EBF7EBF86DF8EDF96FFED
:1050E4008EDF7EBF5E5F361F1DBF0D9F057F057F70
:1050F400057F057F057F057F057F057F057F057F8C
:10510400057F057F057F057F057F057F057F057F7B
:10511400057F057F057F057F057F057F057F057F6B
:10512400057F057F057F057F057F057F057F057F5B
:10513400057F057F057F057F057F057F057F057F4B
:10514400057F057F057F057F057F057F057F057F3B
:10515400057F057F057F057F057F057F057F057F2B
:10516400057F057F057F057F057F057F057F057F1B
:10517400057F057F057F057F057F057F057F057F0B
:10518400057F057F057F057F057F057F057F057FFB
:10519400057F057F057F057F057F057F0D9F1DBF6B
:1051A4003E1F5E5F7EBF8EDF96FF8EDF86DF7EBF93
:1051B4007EBF769F5E5F2DFF159F057F057F057F70
:1051C400057FFFFF057F057F057F057F0D9F2DFF71
:1051D400565F6E9F769F769F7EBF86DF86DF769FC3
:1051E4004E3F2DFF159F059F057F057F057F057F9A
:1051F400057F057F057F057F057F057F057F057F8B
:10520400057F057F057F057F057F057F057F057F7A
:10521400057F057F057F057F057F057F057F057F6A
:10522400057F057F057F057F057F057F057F057F5A
:10523400057F057F057F057F057F057F057F057F4A
:10524400057F057F057F057F057F057F057F057F3A
:10525400057F057F057F057F057F057F057F057F2A
:10526400057F057F057F057F057F057F057F057F1A
:10527400057F057F057F057F057F057F057F057F0A
:10528400057F057F057F057F057F057F057F057FFA
:10529400057F057F057F057F057F057F057F057FEA
:1052A400059F159F2DFF4E3F769F86DF86DF7EBFCD
:1052B400769F769F6E9F565F2DFF0D9F057F057F1E
:1052C400057FFFFF057F057F057F0D9F2DDF563F7F
:1052D400667F667F667F6E9F7EBF769F5E5F35FFCB
:1052E40015BF059F057F057F057F057F057F057F2A
:1052F400057F057F057F057F057F057F057F057F8A
:10530400057F057F057F057F057F057F057F057F79
:10531400057F057F057F057F057F057F057F057F69
:10532400057F057F057F057F057F057F057F057F59
:10533400057F057F057F057F057F057F057F057F49
:10534400057F057F057F057F057F057F057F057F39
:10535400057F057F057F057F057F057F057F057F29
:10536400057F057F057F057F057F057F057F057F19
:10537400057F057F057F057F057F057F057F057F09
:10538400057F057F057F057F057F057F057F057FF9
:10539400057F057F057F057F057F057F057F057FE9
:1053A400057F057F059F15BF35FF5E5F769F7EBF36
:1053B4006E9F667F667F667F563F2DDF0D9F057F5C
:1053C400057FFFFF057F057F0D9F25DF463F5E5F5D
:1053D4005E5F565F667F769F667F461F1DDF0D9F6B
:1053E400057F057F057F057F057F057F057F057F99
:1053F400057F057F057F057F057F057F057F057F89
:10540400057F057F057F057F057F057F057F057F78
:10541400057F057F057F057F057F057F057F057F68
:10542400057F057F057F057F057F057F057F057F58
:10543400057F057F057F057F057F057F057F057F48
:10544400057F057F057F057F057F057F057F057F38
:10545400057F057F057F057F057F057F057F057F28
:10546400057F057F057F057F057F057F057F057F18
:10547400057F057F057F057F057F057F057F057F08
:10548400057F057F057F057F057F057F057F057FF8
:10549400057F057F057F057F057F057F057F057FE8
:1054A400057F057F057F057F0D9F1DDF461F667FF6
:1054B400769F667F565F5E5F5E5F463F25DF0D9F8A
:1054C400057FFFFF057F057F1DBF3E1F563F4E3FF3
:1054D4004E3F565F667F5E5F361F15BF057F057FB3
:1054E400057F057F057F057F057F057F057F057F98
:1054F400057F057F057F057F057F057F057F057F88
:10550400057F057F057F057F057F057F057F057F77
:10551400057F057F057F057F057F057F057F057F67
:10552400057F057F057F057F057F057F057F057F57
:10553400057F057F057F057F057F057F057F057F47
:10554400057F057F057F057F057F057F057F057F37
:10555400057F057F057F057F057F057F057F057F27
:10556400057F057F057F057F057F057F057F057F17
:10557400057F057F057F057F057F057F057F057F07
:10558400057F057F057F057F057F057F057F057FF7
:10559400057F057F057F057F057F057F057F057FE7
:1055A400057F057F057F057F057F057F15BF361FB6
:1055B4005E5F667F565F4E3F4E3F565F3E1F1DBF88
:1055C400057FFFFF057F0D9F2DFF463F461F3E1FB2
:1055D400463F5E5F565F35FF15BF057F057F057F3C
:1055E400057F057F057F057F057F057F057F057F97
:1055F400057F057F057F057F057F057F057F057F87
:10560400057F057F057F057F057F057F057F057F76
:10561400057F057F057F057F057F057F057F057F66
:10562400057F057F057F057F057F057F057F057F56
:10563400057F057F057F057F057F057F057F057F46
:10564400057F057F057F057F057F057F057F057F36
:10565400057F057F057F057F057F057F057F057F26
:10566400057F057F057F057F057F057F057F057F16
:10567400057F057F057F057F057F057F057F057F06
:10568400057F057F057F057F057F057F057F057FF6
:10569400057F057F057F057F057F057F057F057FE6
:1056A400057F057F057F057F057F057F057F15BF86
:1056B40035FF565F5E5F463F3E1F461F463F2DFF48
:1056C4000D9FFFFF059F25DF3E1F3E1F2DFF35FF6A
:1056D4004E3F4E3F2DFF159F057F057F057F057FBC
:1056E400057F057F057F057F057F057F057F057F96
:1056F400057F057F057F057F057F057F057F057F86
:10570400057F057F057F057F057F057F057F057F75
:10571400057F057F057F057F057F057F057F057F65
:10572400057F057F057F057F057F057F057F057F55
:10573400057F057F057F059F059F059F059F059FA5
:105744000D9F0D9F0D9F0D9F0D9F0D9F0D9F0D9FF5
:105754000D9F0D9F059F059F059F059F057F057F55
:10576400057F057F057F057F057F057F057F057F15
:10577400057F057F057F057F057F057F057F057F05
:10578400057F057F057F057F057F057F057F057FF5
:10579400057F057F057F057F057F057F057F057FE5
:1057A400057F057F057F057F057F057F057F057FD5
:1057B400159F2DFF4E3F4E3F35FF2DFF3E1F3E1FD1
:1057C40025DFFFFF15BF2DFF35FF25DF25DF35FF63
:1057D400463F35FF15BF057F057F057F057F057FA4
:1057E400057F057F057F057F057F057F057F057F95
:1057F400057F057F057F057F057F057F057F057F85
:10580400057F057F057F057F057F057F057F057F74
:10581400057F057F057F057F057F057F057F057F64
:10582400057F057F057F057F057F057F057F059F34
:10583400059F059F0D9F0D9E0D9E0D9E0D9E0D9E19
:105844000D9E0D9E0D9E0D9E0D9E0D9E0D9E0D9EFC
:105854000D9E0D9E0D9E0D9E0D9E0D9E0D9F059FF2
:10586400059F059F057F057F057F057F057F057FD4
:10587400057F057F057F057F057F057F057F057F04
:10588400057F057F057F057F057F057F057F057FF4
:10589400057F057F057F057F057F057F057F057FE4
:1058A400057F057F057F057F057F057F057F057FD4
:1058B400057F15BF35FF463F35FF25DF25DF35FF63
:1058C4002DFFFFFF1DDF2DFF1DDF159F25DF3E1F71
:1058D40035FF15BF057F057F057F057F057F057FA4
:1058E400057F057F057F057F057F057F057F057F94
:1058F400057F057F057F057F057F057F057F057F84
:10590400057F057F057F057F057F057F057F057F73
:10591400057F057F057F057F057F057F057F057F63
:10592400FFFFFFFF057F057F059F059F0D9F0D9ED0
:105934000D9E0D9E0D9E0D9E0D9E0D9E0D9E0D9E0B
:105944000D9E0D9E0D9E0D9E0D9E0D9E0D9E0D9EFB
:105954000D9E0D9E0D9E0D9E0D9E0D9E0D9E0D9EEB
:105964000D9E0D9E0D9F0D9F059F059F057F057F35
:10597400057F057F057F057F057F057F057F057F03
:10598400057F057F057F057F057F057F057F057FF3
:10599400057F057F057F057F057F057F057F057FE3
:1059A400057F057F057F057F057F057F057F057FD3
:1059B400057F057F15BF35FF3E1F25DF159F1DDFC2
:1059C4002DFFFFFF25DF1DDF059F0D9F25DF35FF21
:1059D4001DDF059F057F057F057F057F057F057F0B
:1059E400057F057F057F057F057F057F057F057F93
:1059F400057F057F057F057F057F057F057F057F83
:105A0400057F057F057F057F057F057F057F057F72
:105A1400057F057F057F057F057F057F057F057F62
:105A2400FFFFFFFF769F0D9F0D9E0D9E0D9E0D9E09
:105A34000D9E0D9E0D9E0D9E0D9E0D9E0D9E0D9E0A
:105A44000D9E0D9E0D9E0D9E0D9E0D9E0D9E0D9EFA
:105A54000D9E0D9E0D9E0D9E0D9E0D9E0D9E0D9EEA
:105A64000D9E0D9E0D9E0D9E0D9E0D9E0D9F059FE0
:105A7400057F057F057F057F057F057F057F057F02
:105A8400057F057F057F057F057F057F057F057FF2
:105A9400057F057F057F057F057F057F057F057FE2
:105AA400057F057F057F057F057F057F057F057FD2
:105AB400057F057F059F1DDF35FF25DF0D9F059FB2
:105AC4001DDFFFFF25DF059F055F0D9F2DDF25DF10
